:1000000087C20000A2C20000A0C200009EC2000081
:100010009CC200009AC2000098C2000096C2000074
:1000200094C2000092C2000090C200000C94271FEE
:100030008CC200008AC2000088C2000086C2000094
:1000400084C2000082C2000080C200000C94A51887
:100050007CC200007AC2000078C2000076C20000B4
:1000600074C2000072C2000070C200006EC20000C4
:100070006CC200000C000800DC000800000000005A
:1000800000FF00A5FF00FFFF00FF0000FF00FF00D2
:1000900000FF00808000FFFF9600A5FF00FFFF002B
:1000A000FF0000FF00FF0000FF00808000FFFF0056
:1000B000FF009600FFFF00FF0000FF00FF0000FFB1
:1000C00000808000FFFF00FF00A5FF009600FF00FA
:1000D00000FF00FF0000FF00808000FFFF00FF0026
:1000E000A5FF00FFFF009600FF00FF0000FF00805B
:1000F0008000FFFF00FF00A5FF00FFFF00FF0000E2
:1001000096000000FF00808000FFFF00FF00A5FFB9
:1001100000FFFF00FF0000FF00FF9600008080004E
:10012000FFFF00FF00A5FF00FFFF00FF0000FF0032
:10013000FF0000FF960000FFFF00FF00A5FF00FF8B
:10014000FF00FF0000FF00FF0000FF00808096001E
:1001500000FF0000800000400000200000100000B0
:10016000080000040000020032000080000040008F
:100170000020000010000008000004000002000041
:10018000FF003200004000002000001000000800C6
:1001900000040000020000FF000080003200002088
:1001A0000000100000080000040000020000FF0032
:1001B0000080000040003200001000000800000431
:1001C0000000020000FF000080000040000020004E
:1001D000320000080000040000020000FF00008060
:1001E0000000400000200000100032000004000069
:1001F000020000FF0000800000400000200000100E
:1002000000000800320000020000FF000080000033
:100210004000002000001000000800000400320030
:10022000FF000080000040000020000010000008D7
:1002300000000400000200003200800000400000C6
:10024000200000100000080000040000020000FF71
:1002500000003200400000200000100000080000F4
:10026000040000020000FF000080000032002000B7
:1002700000100000080000040000020000FF000061
:100280008000004000003200100000080000040060
:1002900000020000FF00008000004000002000007D
:1002A0003200080000040000020000FF000080008F
:1002B0000040000020000010000032000400000296
:1002C0000000FF000080000040000020000010003F
:1002D000000800003200020000FF00008000004023
:1002E00000002000001000000800000400003200A0
:1002F0002E0342006C0069006E006B007900420022
:10030000610064006700650020005500320046006F
:10031000200044006500760069006300650000006D
:100320003603430072007900700074006F002000F3
:1003300061006E00640020005000720069007600C9
:100340006100630079002000560069006C006C00B9
:10035000610067006500000004030904090222002F
:1003600001010080FA0904000001030000000921D6
:100370001101000122200007058103400005120140
:1003800010010000000824DC371301000102000105
:1003900006D0F10901A1010920150025FF75089576
:1003A0004081020921150025FF750895409102C082
:1003B0005E013082015A30820100020101300A06DA
:1003C000082A8648CE3D0403023039310B30090635
:1003D0000355040613025641311430120603550426
:1003E0000A130B436F6E6F72436F204C4C433114F2
:1003F00030120603550403130B7532667A65726F6B
:100400002E636F6D301E170D313630383032303874
:10041000333335395A170D323230383031303833C2
:100420003335395A3039310B300906035504061378
:1004300002564131143012060355040A130B436F60
:100440006E6F72436F204C4C4331143012060355CB
:100450000403130B7532667A65726F2E636F6D300D
:1004600059301306072A8648CE3D020106082A861F
:1004700048CE3D0301070342000454E45DFC4B08F1
:10048000E6EE639B5CCDA17DCF3E06BA67BC38D655
:10049000B65D076199D01475CE7586423B0D0AE7AB
:1004A000385D17F281146AF85759D2EC31960D8DE8
:1004B000A706803AD155642E5FFE300A06082A86C8
:1004C00048CE3D0403020348003045022100F61FD8
:1004D000B99050B0A7D9D5D55274FB2D61A27DB586
:1004E000F75A6FCA63AB9A3FE6FBB194EE980220CD
:1004F0003C2C8EFC97654B294A11FF2B30B5D71247
:100500002D5A8F490C9DD41AF0217293D3A19E4C81
:1005100011241FBECFEFD4E0DEBFCDBF11E0A0E0BD
:10052000B1E0E0E1F4E402C005900D92A832B10719
:10053000D9F723E0A8E2B1E001C01D92AF3BB207BA
:10054000E1F70E9418190C9406225ACD3F937F932D
:100550009F93762F7095982F90953AB139233AB999
:100560003AB137233AB93BB1382B3BB93BB13723CA
:100570003BB93AB1362B3AB99F917F913F9108959B
:100580003F937F939F93762F7095982F90953AB1D4
:1005900073237AB93AB1762B382B93233AB935E0E5
:1005A0003A95F1F79AB97AB99F9189B184237F91ED
:1005B0003F9108953F939F93982F90953BB1392396
:1005C0003BB93AB1382B3AB99F913F910895A1E0D8
:1005D000B0E0EDEEF2E00C946521FFB690E8F92270
:1005E000198290912801913019F091E0909328019F
:1005F00090E02FE6A22E21E0B22EA80EB91EF50142
:10060000D08085599E4FFC01C080F894DD2009F40C
:10061000A6C0F5018081CEDF8D2D6C2D97DFED2CEE
:1006200080E000E010E0812C90E2992E15FF07C0D9
:100630009091700120916F01922B09F532C08FB714
:100640008F298FBF0000F8948D2D6C2D4E2D98DFD3
:100650000F5F1F4F909100019F5F909300019230B8
:1006600030F0923021F0933011F010920001882385
:10067000E9F29091700120916F01922B14C020E05B
:10068000E0FE09C0E22FF0E0EE0FFF1FEF5CFE4F2F
:100690009182808201C090FD2F5F9695E694992308
:1006A00079F790E0EE242FB72F292FBF1092290160
:1006B0009923D1F1EE20C1F120916C0130916B01B1
:1006C000232B582F30E070E060E040E021C050FF65
:1006D00018C012C020FF0FC0461761F4E32FF0E0EE
:1006E000EE0FFF1FEF5CFE4F11830083E52FEE7FBF
:1006F00031F008C06F5F2695222361F703C071E0D7
:1007000001C090FD4F5F90FD3F5F5695969511F0AB
:100710005523E9F6309329018095E82280E0713075
:10072000D1F4EE20B1F017C09091700120916F01CB
:10073000922B99839091290106C0298120FD9F5F0A
:1007400029812695298329812223B9F790932901AC
:1007500002C000E010E0F894EE2009F067CFF50148
:10076000808128DF10922A018FB78F298FBF2196B1
:10077000ECE00C948121FF920F931F93CF93DF93B2
:100780008C01EB01FF2403C08F2DAFD1F394809136
:100790004E01F816C8F310924A01109249011093C5
:1007A0002C0100932B01CE0110D5CDB7DEB7E5E0CB
:1007B0000C948821FC0180E290E091838083138275
:1007C000128280E095E0958384830895CF93C0E002
:1007D00003C08C2F8AD1CF5F80914E01C817C8F318
:1007E000CF91089510924E0184E08093430184E1FB
:1007F0008093460195E090934701109245018093C4
:100800004401E3E4F1E081E0829383E08683E2D473
:100810001092300110922F0108951F93CF93DF9310
:1008200010922E0110922D014091490150914A01E0
:1008300090934A018093490120914B0130914C01E2
:10084000241B350B280F391FC0E003C0285C304043
:10085000CF5F283C3105D0F730934C0120934B01FA
:1008600080914D01882341F08C1718F410924D01AE
:1008700003C08C1B80934D01BED4E0912F01F091F9
:100880003001309709F0099510E0D0E005C08D2FB8
:100890006C2F48D1182BDF5F50914E01D517B8F35C
:1008A000112349F080912D0190912E019160909338
:1008B0002E0180932D0110924101AFE4B1E040E0A0
:1008C00081E090E018C02C91287199F0E42FE69512
:1008D000E695E695F0E0EF5CFE4F242F2770BC0113
:1008E00002C0660F771F2A95E2F79B013089322BF1
:1008F000308B4F5F1696451731F780912D019091FF
:100900002E01DF91CF911F910895CF93DF93C82FD0
:10091000D62F30914E01EFE4F1E0832F90E066E0B6
:1009200070E00E944E21DF01A80FB91F13964C936F
:10093000832F90E066E070E00E944E21DF01A80F57
:10094000B91FD770DD0FDD0FDD0F1496DC93832FF9
:1009500090E066E070E00E944E21DF01A80FB91F11
:100960001596CC93832F90E066E070E00E944E21B4
:10097000DF01A80FB91F2370832F90E066E070E0BD
:100980000E944E21E80FF91F84818C7F282B14963A
:100990002C9314973F5F30934E01DF91CF910895D0
:1009A0000F931F93CF93C82F90E066E070E00E94F2
:1009B0004E21FC01E15BFE4F45818C2F90E066E00B
:1009C00070E00E944E21FC01E15BFE4F238130E08C
:1009D0000090420102C0359527950A94E2F7022F54
:1009E000243008F404E080914E01C81708F042C09A
:1009F000842FD5D39C01A02FB0E006950695802FBB
:100A000090E08A1B9B0B82179307B4F48C2F90E025
:100A100066E070E00E944E218C01015B1E4F8C2F1E
:100A200090E066E070E00E944E21FC01E15BFE4F29
:100A300084818B7FF8018483B095A195BF4FA21765
:100A4000B307D4F08C2F90E066E070E00E944E2156
:100A5000FC01E15BFE4F8C2F90E066E070E00E94AD
:100A60004E21DC01A15BBE4F14968C9114978460DB
:100A7000848302C020E030E0C901CF911F910F9123
:100A80000895CF93C82F2FE431E090E066E070E046
:100A90000E944E21F901E80FF91FE5818C2F90E0AB
:100AA00066E070E00E944E21D901A80FB91F82E0D4
:100AB0008C9340912D0150912E01426050932E0154
:100AC00040932D018C2F90E066E070E00E944E2153
:100AD000280F391FD90112961C921297F0E0E9599C
:100AE000FE4F80E88083CF910895CF93C82FC9DF50
:100AF0002FE431E08C2F90E066E070E00E944E2100
:100B0000F901E80FF91F81E080838C2F90E066E007
:100B100070E00E944E21280F391F8FE0F901818378
:100B2000CF910895EF92FF920F931F93CF93DF938E
:100B3000C82FD62F35DF7C018C2F90E066E070E067
:100B40000E944E21FC01E15BFE4F24818C2F90E03E
:100B500066E070E00E944E21FC01E15BFE4FA38144
:100B6000B0E0822F837090E00196AD0102C05595F0
:100B700047958A95E2F7CA01423008F482E08D0178
:100B8000081B11098C2F90E066E070E00E944E2156
:100B9000FC01E15BFE4F8081843009F411C1853096
:100BA00030F4813071F0823009F0F2C273C08031CC
:100BB00009F4D8C1803209F4B1C2883009F0E8C222
:100BC0005CC200912D0110912E01C801926090939A
:100BD0002E0180932D018C2F90E066E070E00E9442
:100BE0004E21FC01E15BFE4F25818C2F90E066E0F9
:100BF00070E00E944E21FC01E15BFE4F4181822F9B
:100C000090E04A3080F0FC01EE0FFF1FE75CFE4FE2
:100C1000DC01AA0FBB1FAF5CBE4F8D919C91119759
:100C2000918380831DC0DC01AA0FBB1FA75CBE4F50
:100C30002D913C911197FC01EE0FFF1FEF5CFE4FD1
:100C4000808191818217930718F42150304005C0AC
:100C50002817390758F42F5F3F4F11963C932E9376
:100C60000860126010932E0100932D0141508C2FCB
:100C700090E066E070E00E944E21FC01E15BFE4FD7
:100C80004183442311F48C2FFCDE80914401809336
:100C90004D0176C222FF1AC08C2F90E066E070E012
:100CA0000E944E21FC01E15BFE4FE581F0E0E95935
:100CB000FE4F10828C2F90E066E070E00E944E2183
:100CC000FC01E15BFE4F80E2808351C2C701F7FE69
:100CD00002C080E090E08A179B07B0F08C2F90E074
:100CE00066E070E00E944E21FC01E15BFE4F84E073
:100CF00080838C2F90E066E070E00E944E21FC0122
:100D0000E15BFE4F12823EC2DD2309F441C28091B5
:100D10004D01882309F03CC28C2F90E066E070E022
:100D20000E944E21FC01E15BFE4F258130E0D9019C
:100D3000AA0FBB1FA75CBE4F8D919C911197F90123
:100D4000EE0FFF1FEF5CFE4F40815181F901E95921
:100D5000FE4F8417950768F420812D0F2083309172
:100D600047013058231708F413C220E82083019666
:100D700010C048175907D0F420812D1B208330E87C
:100D800040914601532F541B521708F401C230837F
:100D9000019711969C938E9380912D0190912E0135
:100DA000886090932E0180932D01F2C1808181385B
:100DB00010F081508083808187FDEAC18F5FCCC1B4
:100DC000C701F7FE02C080E090E08A179B0708F495
:100DD000C5C18091440180934D018C2F90E066E065
:100DE00070E00E944E21FC01E15BFE4F8C2F90E0F1
:100DF00066E070E00E944E21DC01A15BBE4F1296BE
:100E00008C9112978F5F82838C2F90E066E070E068
:100E10000E944E21FC01E15BFE4F048110E008734B
:100E2000107033E0169507953A95E1F7002309F025
:100E300052C05AC0DC1709F44CC08D2F90E066E018
:100E400070E00E944E21FC01E15BFE4F848190E046
:100E50008873907023E0969587952A95E1F7081797
:100E6000C1F58D2F9DDD9C018D2F90E066E070E037
:100E70000E944E21FC01E15BFE4F8381281B31095A
:100E80008C2F90E066E070E00E944E21FC01E15B57
:100E9000FE4F8381A701481B51094217530774F085
:100EA0008D2F90E066E070E00E944E21FC01E15B36
:100EB000FE4F8081803111F0883059F48C2F90E002
:100EC00066E070E00E944E21FC01E15BFE4F128261
:100ED00011E0DF5F02C010E0D0E080914E01D81732
:100EE00008F4A8CF112379F480914301882359F0A5
:100EF00080912D0190912E01986090932E01809306
:100F00002D0141E001C040E08C2F90E066E070E0F0
:100F10000E944E21FC01E15BFE4F928180914301D2
:100F2000981708F436C120912D0130912E012360CD
:100F300030932E0120932D018C2F90E066E070E01D
:100F40000E944E21FC01E15BFE4F80E180838C2FEB
:100F500090E066E070E00E944E21FC01E15BFE4FF4
:100F6000118217C122FF20C08C2F90E066E070E054
:100F70000E944E21FC01E15BFE4FE581F0E0E95962
:100F8000FE4F80E880838C2F90E066E070E00E9446
:100F90004E21FC01E15BFE4F80E2808380912D01B8
:100FA00090912E0190615DC0C701F7FE02C080E004
:100FB00090E08017910788F48C2F90E066E070E055
:100FC0000E944E21FC01E15BFE4F88E0808380910E
:100FD0002D0190912E01946044C080912D0190913B
:100FE0002E01816090932E0180932D018C2F90E033
:100FF00066E070E00E944E21FC01E15BFE4F228121
:1010000080914301281758F48C2F90E066E070E03F
:101010000E944E21FC01E15BFE4F2F5F2283309145
:101020004501332321F18C2F90E066E070E00E94AF
:101030004E21FC01E15BFE4F21818C2F231758F4D8
:1010400090E066E070E00E944E21FC01E15BFE4F03
:10105000D20FD1830CC049DD80912D0190912E01DA
:10106000926090932E0180932D0141E001C040E0F9
:101070008091440180934D018CC080914401809304
:101080004D018C2F90E066E070E00E944E21FC0143
:10109000E15BFE4F8281882309F460C0C701F7FE3F
:1010A00002C080E090E008171907B0F48C2F90E0A0
:1010B00066E070E00E944E21FC01E15BFE4F80E1A2
:1010C000808380912D0190912E01816090932E015B
:1010D00080932D0140E00AC080912D0190912E0156
:1010E000946090932E0180932D0141E08C2F90E02D
:1010F00066E070E00E944E21FC01E15BFE4F8C2F08
:1011000090E066E070E00E944E21DC01A15BBE4FE2
:1011100012968C911297815082833BC08C2F90E065
:1011200066E070E00E944E21FC01E15BFE4FE5812C
:10113000F0E0E959FE4F80818F5F808322FD11C06E
:1011400087FF0CC08C2F90E066E070E00E944E217B
:10115000FC01E15BFE4F80E180831AC08C2F91DCA3
:1011600017C090914801891768F08C2FBEDC8091E0
:101170002D0190912E01906190932E0180932D016D
:1011800041E007C080912D0190912E019460F4CF31
:1011900040E0842FCDB7DEB7E6E00C94872190E0E5
:1011A000FC01349621E331E0EE0FFF1FE20FF31F45
:1011B000DC01AA0FBB1FA20FB31F808191812D916B
:1011C0003C911197821B930B0895009711F0FC013D
:1011D0000995089510926F011092700110926B01A1
:1011E00010926C01109271011092720110926D01B7
:1011F00010926E0108958091710190916F01892B79
:1012000041F0E0912B01F0912C01309711F080E03A
:1012100009958091720190917001892B41F0E091C4
:101220002B01F0912C01309711F081E00995089580
:1012300080913F0390E0880F991F880F991FFC0150
:10124000EC58FF4F259134912C583F4F3093760145
:1012500020937501FC01EA58FF4F85919491AC01F0
:10126000440F551F480F591F440F551F440F551F5A
:10127000840F951F880F991F820F931F90937401FD
:101280008093730101C0089560917501709176019A
:1012900080917301909174016817790711F4C8CF98
:1012A000089548E150E080E493E00E9496210E9476
:1012B0008E18A0917501B0917601FD017896259167
:1012C0003491AB01BC01420F531F611D711D40934E
:1012D0007701509378016093790170937A01CD0181
:1012E0004A96909376018093750168E180E493E0DB
:1012F0000C945E1808950F931F930E948E1800910E
:101300007701109178012091790130917A0160176D
:1013100071078207930708F0B7DF1F910F910895B7
:1013200010923F0385CF08950F931F93EBE7F1E0F1
:1013300093E0908397E0900F91838283638344834B
:10134000558310E046E050E0BF0180E6A6D391E06F
:10135000811101C090E0892F81951F910F9108950F
:1013600041E050E06CE171E080E66BC3089541E03C
:1013700050E06EE171E080E664C3089540E050E023
:1013800060E070E08FE7F3D342E050E064E171E0A9
:1013900080E657C30895FF920F931F93CF93DF9377
:1013A000EC01F62E8A01462F50E0BC0180E614D4F1
:1013B0008823F1F0F81610F0843028F486E10E94BA
:1013C000A7198FEF16C0843041F49981992329F031
:1013D000892F0E94A7198FEF0CC00115110549F044
:1013E0009DEF980FF80190832196D283C18301C0AD
:1013F0008FEFDF91CF911F910F91FF9008953F9252
:101400004F925F926F927F928F929F92AF92BF9214
:10141000CF92DF92EF92FF920F931F93CF93DF93C0
:10142000C82F162F3A014901D02ED0E00F2EF4E636
:101430003F2EF02D482E512CA1DF80E00E94A719ED
:1014400007C08AE090E00E94AD19DF5FD93058F5FF
:101450000D2D9401A301612F8C2F66DF082F8111C0
:10146000F0CF19C0DF5FD63000F50E94AA198111B4
:101470000EC0C03419F0C13429F002C0832D03C05E
:1014800080E201C082E390E00E94AD1904C0C20175
:101490000E94AD19D1CFA5016C2DC7017CDF8F3F14
:1014A00009F35EDF03C00FEF01C00EEF802FDF9165
:1014B000CF911F910F91FF90EF90DF90CF90BF9051
:1014C000AF909F908F907F906F905F904F903F90E4
:1014D00008957F928F929F92AF92BF92CF92DF92A8
:1014E000EF92FF920F931F93CF93DF93CDB7DEB7A9
:1014F0002A970FB6F894DEBF0FBECDBF182F862EE9
:10150000942ED52E722E822F90E0860F911D059776
:10151000DCF583E08217F0F0412F50E0CE01089611
:101520005C010F2EF7E0CF2EF02D07977C0100E035
:1015300020E030E060E082E062DFE984FA84472D59
:1015400050E0692D7D2DC701880D911D0E94B521A8
:101550009E2CDF2C412F50E0CE0108965C010F2E0F
:10156000F7E0CF2EF02D07977C0104E0292D3D2DCB
:1015700060E082E144DF0E94AA1991E0811101C07C
:1015800090E0892F819501C08FEF2A960FB6F894CD
:10159000DEBF0FBECDBFDF91CF911F910F91FF90A6
:1015A000EF90DF90CF90BF90AF909F908F907F9003
:1015B0000895AF92BF92CF92EF92FF920F93CF9385
:1015C000DF9300D01F92CDB7DEB79E012F5F3F4F54
:1015D00059010F2EF4E2CF2EF02D7C0100E020E027
:1015E00030E045E150E060E082E009DFEA81FB8124
:1015F00081E090E02381222311F080E090E00F90C1
:101600000F900F90DF91CF910F91FF90EF90CF90BF
:10161000BF90AF9008950F931F93CF93DF9300D0A7
:1016200000D0CDB7DEB71A8219821C821B8283E0FC
:10163000806889838A818F70806A8A8310E002E0E3
:10164000612F617010FD602F202FAE014F5F5F4F43
:10165000812F86958B5F3DDF81111CC01F5F10318C
:1016600079F78B81807E83618F7D8B8310E002E030
:10167000612F617010FD602F202FAE014D5F5F4F15
:10168000812F8695885E25DF811106C01F5F10318E
:1016900079F703C08FEF01C08EEF0F900F900F907E
:1016A0000F90DF91CF911F910F910895F89481E0F1
:1016B0008093E00080E28093D80015B818B81BB87A
:1016C00014B817B81AB815BC14BC10926E0087E095
:1016D00085BB2FEF87EA91E6215080409040E1F7EB
:1016E00000C00000E0E0F8E309950895862780FF38
:1016F00007C09695879521E0822720EA922702C0AD
:101700009695879580FF07C09695879521E082275B
:1017100020EA922702C09695879580FF07C096958C
:10172000879521E0822720EA922702C09695879527
:1017300080FF07C09695879521E0822720EA9227AF
:1017400002C09695879580FF07C09695879521E002
:10175000822720EA922702C09695879580FF07C0CE
:101760009695879521E0822720EA922702C09695D8
:10177000879580FF07C09695879521E0822720EA0C
:10178000922702C09695879580FF07C0969587950A
:1017900021E0822720EA922708959695879508955B
:1017A000AC014A7A5A7A5695479585759575880F92
:1017B000991F842B952B9C012C7C3C7CA901569570
:1017C0004795569547959C0123733373220F331F1A
:1017D000220F331F242B352BC901807F907F9295D8
:1017E00082958F7089279F7089272F703F7022956F
:1017F0003295307F3227207F3227822B932B9827F8
:10180000892798270895292F332723303105C9F0D8
:101810003CF42130310559F02230310569F036C0F1
:101820002132310549F12232310559F12FC082E1CF
:1018300090E02EE733E033C082E290E02CE533E025
:101840002EC099278130910559F08230910571F0B1
:10185000892B09F5E8E5F3E0849190E09F011FC032
:10186000E0E2F3E0849190E09F0119C0E0EFF2E044
:10187000849190E09F0113C089E090E02EE633E070
:101880000EC080E290E020E933E009C080E090E003
:1018900020E030E004C080E090E020E030E0FA0199
:1018A0003183208308959C01CB01B9010C94CD2193
:1018B00008959C01CB01B9010C94EF210895CF93B9
:1018C000DF93C0E0D0E06FEFCE010E94DD212196D2
:1018D000C11584E0D807B9F7DF91CF910895EFE6FD
:1018E000F1E080E28083118212821382EBE6F1E064
:1018F00080E1808311821282138221E04AE060E05D
:1019000080E003D860E070E087EE92E00E94BB03C5
:10191000E2E4F1E084E0818384E1848395E09583CF
:101920001382828310828AE08683109230011092A3
:101930002F01089580913C038823A1F010923C036D
:1019400080913803909139030E940D049093840193
:101950008093830188279170909382018093810105
:10196000892B71F708952D98259A089525982D9A19
:1019700008952C98249A089524982C9A0895F6DFB7
:10198000FBCF0895F6DF85E18A95F1F70000EBCFF4
:101990000895EFDF85E18A95F1F70000E7DF1D9BF1
:1019A000FECF85E18A95F1F70000E6DF85E18A95B3
:1019B000F1F700000895882311F0DEDF01C0D9DFC0
:1019C00085E18A95F1F70000D1DF85E18A95F1F78D
:1019D00000001D9BFECFC7CF0895CF93CDDF85E1DB
:1019E0008A95F1F70000C2DF1D9BFECF85E18A9545
:1019F000F1F70000C3B1B7DFC4FB882780F9CF91AE
:101A00000895CF93DF93D82FC8E08D2F8078D3DF50
:101A1000DD0FC150D1F7E1DFDF91CF9108951F9322
:101A2000CF93DF93182FD8E0C0E0CC0FD6DFC82BC0
:101A3000D150D9F7812FBFDF8C2FDF91CF911F912C
:101A40000895EF92FF920F931F93CF93DF93182F78
:101A5000E62EF72EEA0196DF812F880FD2DF811163
:101A600004C021970E2D1F2D0AC093DF81E00EC008
:101A7000F80181918F01C5DF2197811105C0FC2EEE
:101A8000CF3FFFEFDF07A1F784DF8F2DDF91CF91ED
:101A90001F910F91FF90EF9008957F928F929F92E8
:101AA000AF92BF92CF92DF92EF92FF920F931F936C
:101AB000CF93DF93B82E7B01EA01690163DF8B2DA1
:101AC000880F9FDF782E882321F063DF77247394BB
:101AD0003FC02097B1F057018FEFA81AB80AF7015D
:101AE00080818FDF75010DC07401F40161914F0198
:101AF000CE01FCDDEC01F701808183DF882351F00A
:101B00001AC047015E01F1E0AF1AB108AE0CBF1C6C
:101B1000C0E0D0E08A149B0439F70DC05701F701EB
:101B200061917F01CE01E2DDEC01F501808169DF89
:101B3000882321F006C076010C0D1D1DE016F1066C
:101B400069F7CE012DDEC92F5CDF8C2F5ADF21DF34
:101B5000872DDF91CF911F910F91FF90EF90DF9034
:101B6000CF90BF90AF909F908F907F900895DF921D
:101B7000EF92FF920F931F93CF93DF93C82FE62E20
:101B8000F72E8A01FFDE8C2F880F81603ADFD82E76
:101B9000811105C0E8012197012B29F413C0F9DE5A
:101BA000DD24D39410C00E2D1F2DFF24F394E12CBF
:101BB0008F2D209709F08E2D32DFF80181938F0150
:101BC0002197B0F7E6DE8D2DDF91CF911F910F9118
:101BD000FF90EF90DF900895AF92BF92DF92EF9267
:101BE000FF920F931F93CF93DF93C82F5B017A016E
:101BF000C9DE8C2F880F816004DF882319F0C9DECD
:101C0000D12C1EC085010F5F1F4F80E008DFD82E4A
:101C1000F5018083C82FD0E0EC16FD060CF4E70137
:101C2000219769F0FF24F394E12C8F2D209709F080
:101C30008E2DF5DEF80181938F012197B1F7A9DE92
:101C40008D2DDF91CF911F910F91FF90EF90DF903D
:101C5000BF90AF900895EF92FF920F931F93CF9391
:101C6000DF9300D0CDB7DEB77C01FC0160A1162F59
:101C7000111F1127111F6081062F001F0027001F51
:101C800080E38983812F800F8C5B8A8362E070E020
:101C9000CE010196EFD11A8261E070E08CE191E013
:101CA000E9D180E2800F8983602F70E06F5F7F4F02
:101CB000CE010196DFD160E270E0C701DBD161E0C7
:101CC00070E08CE191E0D6D180E2810F8983612FB1
:101CD00070E06F5F7F4FCE010196CCD160E270E083
:101CE000C7018096C7D10F900F90DF91CF911F91C0
:101CF0000F91FF90EF900895CF92DF92EF92FF92B5
:101D00000F931F93CF93DF93CDB7DEB7C654D1099E
:101D10000FB6F894DEBF0FBECDBF8C01AFD1F80176
:101D20008181823009F48CC0833009F4F4C08130A1
:101D300009F007C126961FAE269784E027968FAF3D
:101D4000279700D49CD181116FC0BE016F5F7F4F78
:101D5000CE018F5B9F4FFFD28F3F09F468C078019F
:101D6000F7E0EF0EF11CD6D161E0CE018B5B9F4F07
:101D7000F4D160E2C8018796F0D160E2C701EDD1ED
:101D800064E0CE018F5B9F4FE8D161E085E490E095
:101D90008C0F9D1F0196E1D160E4CE010196DDD14B
:101DA0001CD267E171E0C7013DD28F3F09F442C008
:101DB000F80197A1991F9927991F9A5B8781881F1E
:101DC0008827881FC92EC80ED12CBCD3875B9F4F94
:101DD0008C0D9D1D2BD485E026968FAF269762E053
:101DE00070E0CE018B5B9F4F45D160E470E0CE0187
:101DF000019640D184E026968FAF269761E070E08F
:101E0000CE018B5B9F4F36D164E070E0CE018F5BDB
:101E10009F4F30D197D36C0192D3B60111D1C70136
:101E20001ADF80E090E908C085E899E605C085E8FA
:101E300099E602C084E899E6F8019183808381C025
:101E4000F801D28081E022968FAF22977801F8E4E2
:101E5000EF0EF11CC701FCD2882331F082E090E044
:101E6000E5D384E899E653C087E0D81206C082E043
:101E700090E0DCD385E899E64AC001D1882331F0AF
:101E800082E090E0D3D385E899E641C06801E7E0BD
:101E9000CE0ED11C20D369837A838B839C833AD165
:101EA00060E2C801879659D161E0CE018F5B9F4FF8
:101EB00054D164E0CE01019650D160E2C6014DD10B
:101EC0008CD1B701C601AED18F3FF9F0F80187A1DF
:101ED000982F991F9927991F9A5B8781881F8827B8
:101EE000881F890F90E00796A1D361E070E0CE01D2
:101EF0008F5B9F4FBFD064E070E0CE010196BAD0F7
:101F0000C601A9DE80E090E902C084E899E6F80104
:101F10009183808316C087E0E0E2F1E0DE01119654
:101F200001900D928A95E1F788E090E07FD366E01A
:101F300070E0CE0101969ED080E090E9F801918397
:101F4000808361E070E0C801019694D061E070E0A8
:101F5000C80190D091D0CA5BDF4F0FB6F894DEBFB6
:101F60000FBECDBFDF91CF911F910F91FF90EF90EA
:101F7000DF90CF9008958F929F92AF92BF92CF92B1
:101F8000EF92FF920F931F93CF93DF9300D01F9296
:101F9000CDB7DEB78CE693E00CDB892B09F441C0AA
:101FA00044E050E068E573E080E890E07CDC8091FC
:101FB00058038F30B1F1812C912C11E0CE010196A4
:101FC0005C010F2EF6E4CF2EF02D0F2EFCE6EF2E47
:101FD000F3E0FF2EF02D00E020E030E040E050E0A4
:101FE00060E08BE10CDA81111CC0EA81FB81108377
:101FF0006A817B8144E050E0C4015BDC1F5F94E0B8
:10200000890E911C1031D1F6E8E5F3E08FE0808372
:1020100012821182138244E050E0BF0180E890E018
:1020200048DC0F900F900F90DF91CF911F910F918F
:10203000FF90EF90CF90BF90AF909F908F900895BA
:102040000F931F93CF93DF936115710571F0EB012F
:10205000082F192FF801849161E070E090E0F6D22A
:1020600021970F5F1F4F2097A9F7DF91CF911F9105
:102070000F910895EBC20895DEC208950895CF929E
:10208000DF92EF92FF920E948E186B017C0103C0D9
:102090000E948B1888950E94A3198111F9CF10C056
:1020A0000E948E18DC01CB018C199D09AE09BF0975
:1020B00081319742A105B10570F40E948B18889573
:1020C0000E94A319882361F30E94A31991E0882339
:1020D00019F090E001C090E0892FFF90EF90DF9021
:1020E000CF900895CF93DF9381E08093CF01C5E037
:1020F000C6DFD82F811107C0C150D1F71092CF0190
:10210000DEDB39DF03C01092CF01DFEF8D2FDF91CF
:10211000CF910895AF92BF92CF92EF92FF920F931B
:1021200010928801A12CB12C0F2EF6E4CF2EF02DA9
:102130000F2EFCE6EF2EF3E0FF2EF02D00E020E066
:1021400030E040E050E060E087E459D90F91FF9023
:10215000EF90CF90BF90AF9008958F929F92AF92E3
:10216000BF92CF92EF92FF920F93CF93DF93EC0148
:102170004C01860E911C23C0E091880181E08E0FF6
:10218000809388019991F0E0E757FE4F9083803467
:10219000B1F4A12CB12C0F2EF6E4CF2EF02D0F2E82
:1021A000FCE6EF2EF3E0FF2EF02D00E429E831E00D
:1021B00040E450E061E087E422D910928801C8151C
:1021C000D905D1F6DF91CF910F91FF90EF90CF908D
:1021D000BF90AF909F908F900895AF92BF92CF9293
:1021E000EF92FF920F9300918801402F50E00F2E45
:1021F000F5E8AF2EF1E0BF2EF02D0F2EF6E4CF2E36
:10220000F02D0F2EF9E8EF2EF1E0FF2EF02D9701C3
:1022100062E087E4F4D80F91FF90EF90CF90BF90E9
:10222000AF9008954F925F926F927F928F929F929C
:10223000AF92BF92CF92EF92FF920F93CF93DF9323
:10224000CDB7DEB727970FB6F894DEBF0FBECDBF70
:10225000FB01408150E04031510508F047C04B017F
:102260003C014115510509F44BC02A01F1E04F1A18
:102270005108CE0101965C010F2EF6E4CF2EF02D11
:102280000F2EFCE6EF2EF3E0FF2EF02D00E020E015
:1022900030E0A20160E881E4B2D89FE04916510421
:1022A000E1F044E050E0BE016C5F7F4FC201880F57
:1022B000991F880F991FF7DAF40190818C81981388
:1022C00017C091818D81981315C092818E819813CA
:1022D00013C093818F81981311C06A817B8140E480
:1022E00050E0C3010E94B52180E020C08FEF1EC0E6
:1022F0008FEF1CC08FEF1AC08FEF18C08FEF16C082
:10230000CE0101965C010F2EF6E4CF2EF02D0F2E9C
:10231000FCE6EF2EF3E0FF2EF02D00E020E030E0B1
:102320004FE050E060E881E46AD8D7CF27960FB637
:10233000F894DEBF0FBECDBFDF91CF910F91FF901C
:10234000EF90CF90BF90AF909F908F907F906F90C5
:102350005F904F9008954F925F926F927F928F920D
:102360009F92AF92BF92CF92EF92FF920F931F93E3
:10237000CF93DF93CDB7DEB727970FB6F894DEBFC4
:102380000FBECDBF10915B031F3008F04AC02B0178
:102390003C01812E912CCE0101965C010F2EF6E4BA
:1023A000CF2EF02D0F2EFCE6EF2EF3E0FF2EF02DBA
:1023B00000E020E030E0A40164E080E420D86A81FD
:1023C0007B8140E450E0C2010E94B52144E050E02E
:1023D000BE016C5F7F4FC401880F991F880F991F42
:1023E00062DA2C8130E0215031098216930619F00F
:1023F0001C8383E1ACD78C819D81AE81BF81F301C9
:1024000080839183A283B383E8E5F3E083818F5FC8
:10241000838344E050E0BF0180E890E04ADA80E046
:1024200001C08FEF27960FB6F894DEBF0FBECDBF69
:10243000DF91CF911F910F91FF90EF90CF90BF90C0
:10244000AF909F908F907F906F905F904F90089586
:102450000F931F93CF93DF9300D000D0CDB7DEB79B
:10246000FC01908191509F3060F58F01892F90E0A1
:1024700044E050E0BE016F5F7F4F880F991F880FC7
:10248000991F11DAF8019081898198130FC0918109
:102490008A8198130DC092818B8198130BC091E0B3
:1024A00023818C81281307C090E005C091E003C010
:1024B00091E001C091E081E0911101C080E081953F
:1024C00001C08FEF0F900F900F900F90DF91CF9181
:1024D0001F910F910895AF92BF92CF92EF92FF920A
:1024E0000F93CF93DF9300D01F92CDB7DEB7CE010D
:1024F00001965C010F2EF6E4CF2EF02D0F2EFCE698
:10250000EF2EF3E0FF2EF02D00E020E030E040E081
:1025100050E061E084E20E94FF09EA81FB81608172
:102520007181828193810F900F900F90DF91CF91F5
:102530000F91FF90EF90CF90BF90AF90089582EBF6
:1025400093E00895E0EBF3E0859194910895109263
:10255000D1011092D2011092D0018AEDECE1F2E0AB
:10256000DF011D928A95E9F780E4E3EDF1E0DF01F8
:102570001D928A95E9F70895CF92DF92EF92FF922C
:10258000CF93DF93CDB7DEB7C054D1090FB6F8941F
:10259000DEBF0FBECDBF6B017C0169837A838B8365
:1025A0009C838FEB8D8348871E8281E08F8360E45C
:1025B00070E0CE010196A3D6ECE5F3E02CE733E022
:1025C00080819181A281B381C816D906EA06FB06F3
:1025D00021F410821182128213823896E217F307D7
:1025E00079F7C05CDF4F0FB6F894DEBF0FBECDBFEA
:1025F000DF91CF91FF90EF90DF90CF90089580E131
:10260000ECE5F3E0DF011D928A95E9F78AEDECE154
:10261000F2E0DF011D928A95E9F710921302109201
:10262000D2011092D1011092D001089590932D0201
:1026300080932C0208958091D201882329F060E4D0
:1026400070E083ED91E05BD682CF08958F929F92E8
:10265000AF92BF92CF92DF92EF92FF920F931F93B0
:10266000CF93DF93EC018B01BB24B3940F2EF3EDDA
:10267000CF2EF1E0DF2EF02D0F2EFCE1EF2EF2E059
:10268000FF2EF02D0F2EF5E08F2EF02D0F2EF7E000
:102690009F2EF02D6894AA24A6F8B092D0018091C4
:1026A000D201811151C0F70181819281A381B4814E
:1026B000F60180839183A283B3838091D10181113C
:1026C0000DC0F7018581F6018483F7018089918926
:1026D000F601958386839092D20136C09FEF980FC2
:1026E000F60194838092D20190E0019780389105A1
:1026F0005CF182E12CD634C02196FE0131978081B5
:10270000E92FF0E0ED52FE4F8083F70126853785F3
:102710002F5F3F4F378726879F5F9034D1F4109209
:10272000D2018091D1018F5F8093D10160E470E08C
:10273000C601E5D5F6018A2D11928A95E9F70115B2
:10274000110509F0AACF0CC09091D201AE01400F43
:10275000511F01501109C417D50771F69093D2018A
:10276000DF91CF911F910F91FF90EF90DF90CF906D
:10277000BF90AF909F908F9008954F925F926F920D
:102780007F928F929F92AF92BF92CF92DF92EF9201
:10279000FF920F931F93CF93DF9300D01F92CDB77B
:1027A000DEB78C01FC0180819181A281B3814091CF
:1027B0005C0350915D0360915E0370915F03841729
:1027C0009507A607B70779F0409164035091650318
:1027D000609166037091670384179507A607B70792
:1027E000D9F421E001C020E0E22EF12C9701220F64
:1027F000331F220F331F220F331FA901445A5C4F8E
:102800007A01452B49F08AD4D70114966D937D93B4
:102810008D939C93179708C08F3F9F4FAF4FBF4F2B
:1028200009F035C4E12CF12C79D4809018029090F5
:102830001902A0901A02B0901B02681579058A054A
:102840009B0590F48091140290911502E816F90608
:1028500059F060911D0270911E0280911F029091AB
:10286000200246E089DE13C481E09091D0019111ED
:1028700080E080931C02882309F444C0813009F071
:10288000B0C0D80114968C91149788239CF51596A6
:102890008C91159790E0982F882716962C91822B73
:1028A0008A3B9D4144F0F80160817181828193816E
:1028B00043E062DEECC34BDEF80180819181A281AE
:1028C000B3810F2EFCE1EF2EF2E0FF2EF02DF70189
:1028D00081839283A383B483D80114968C918583DA
:1028E0001DD4F70166837783808791878FEF80936C
:1028F000010177C0D8016D917D918D919C9141E04E
:102900003BDEC5C3F80140815181628173818091B2
:102910001D0290911E02A0911F02B0912002481743
:1029200059076A077B0769F58481882324F40FDE41
:10293000C80123DFACC3F2D3609322027093230259
:102940008093240290932502D80114962C918091B3
:102950000101082E000C990B0196422F50E08417BC
:10296000950761F0F4DD60911D0270911E02809167
:102970001F029091200244E0FFDD89C320930101F2
:1029800030C0CCD3C0902202D0902302E090240229
:10299000F0902502DC01CB018C199D09AE09BF091D
:1029A0008D3D9540A105B105A0F00F2EFCE1EF2E65
:1029B000F2E0FF2EF02D81E0D7018C93C8DDF70106
:1029C000618172818381948145E0D6DDC801D5DEC5
:1029D0005EC3D8016D917D918D919C9146E0CCDDD7
:1029E00056C380912102813C09F436C2A8F4843890
:1029F00009F4A7C138F4813809F44EC1833809F4C9
:102A0000D8C039C3883809F47BC1803C09F4F0C1CF
:102A1000863809F030C316C0863C09F4CAC248F4AF
:102A2000833C09F46FC208F41AC2853C09F495C2CC
:102A300022C3883C09F4F3C208F4E1C2893C09F4DA
:102A400017C319C3F801858190E0982F8827268144
:102A5000822B089759F060911D0270911E0280919F
:102A60001F029091200243E087DD11C3ECE1F2E008
:102A700081E190E0918B808B81819281A381B481EF
:102A8000892B8A2B8B2B19F480E261D400C30F2E83
:102A9000FCE5AF2EF3E0BF2EF02DE12CF12C65010B
:102AA000F50180819181A281B381892B8A2B8B2BA7
:102AB00009F134D3D50114964D905D906D907C90C2
:102AC0001797DC01CB0184199509A609B709893E3E
:102AD0009340A105B10570F4FFEFEF1AFF0A28E05B
:102AE000A20EB11C34E0E316F104C9F680E090E0D8
:102AF000DC0136C02091130231E0320F822F90E0CA
:102B0000A0E0B0E0AC01BD014254554461407543C2
:102B1000232F83549544A140B5438E3F9F4FAF4F21
:102B2000BF4F50F730931302C701880F991F880FCA
:102B3000991F880F991F9C01245A3C4F7901D90194
:102B40004D935D936D937C931397E8D2F601648364
:102B5000758386839783F70180819181A281B381F8
:102B60000F2EFCE6EF2EF3E0FF2EF02DF701808311
:102B70009183A283B38381E0848385831682178245
:102B8000108668E070E0C801079660DD69E070E0DB
:102B9000C7015CDD50DDF70180819181A281B381A5
:102BA00080931D0290931E02A0931F02B0932002F7
:102BB0006EC2D80114968C91882374F404301105E8
:102BC00058F460911D0270911E0280911F02909135
:102BD000200243E0D1DC5BC2809126029091270263
:102BE000009761F581E08093D001ECE1F2E089E3A8
:102BF00090E093878287D80115968C91159790E085
:102C0000982F882716962C91822B95878487B80158
:102C1000695F7F4F49E350E08EE292E00E94B52168
:102C2000F801858190E0982F88272681822BCA970A
:102C300008F02DC28EE292E05FD829C29C01255C8B
:102C40003F4F293C310550F087E181D3D8016D9188
:102C50007D918D919C914FE78FDC10C0B8016B5F27
:102C60007F4F4BE350E0825D9D4F0E94B521ECE128
:102C7000F2E082859385CB9693878287ECE1F2E040
:102C800022853385848595852817390708F4FFC187
:102C90008EE292E031D8FBC18091D001811114C045
:102CA000F801658170E0762F66278681682B709326
:102CB0002D0260932C026A33710510F069E370E015
:102CC000C8010796C3DC10C0ECE1F2E060897189AD
:102CD00086859785681B790B6C33710510F06BE363
:102CE00070E0C8010596B2DCECE1F2E020893189A0
:102CF000868597852817390709F0C9C19CDCC7C1AB
:102D0000D80115968C91159790E0982F88271696E4
:102D10002C91822B892B51F060911D0270911E0223
:102D200080911F029091200243E026DC10922D0238
:102D300010922C0260E070E080E090E087DC7BDCA9
:102D4000A6C1F801F780FAE0FF1558F460911D0262
:102D500070911E0280911F029091200242E00CDCD3
:102D600096C10CE112E0F80181819281A381B481C6
:102D70008093140290931502A0931602B093170249
:102D8000CDD14F2D50E09A01220F331F229532955D
:102D9000307F3227207F3227241B350B220F331F31
:102DA000220F331F240F351F220F331F220F331F13
:102DB000220F331F6901330FEE08FF08DC01CB013E
:102DC0008C0D9D1DAE1DBF1D80931802909319029E
:102DD000A0931A02B0931B02D80151961C921E9226
:102DE000509760E070E080E090E030DC24DC4FC180
:102DF000F801478150E0542F44278085482B9E01DD
:102E00002F5F3F4F59010F2EF6E4CF2EF02D0F2EDE
:102E1000FCE6EF2EF3E0FF2EF02D00E020E030E0A6
:102E200060E882E00E94FF0981110BC0698170E0B7
:102E300070932D0260932C028A819B8107DCFBDB5F
:102E400026C110922D0210922C0260E070E080E00A
:102E500090E0FCDBF0DB1BC10E940B0B18C18CE681
:102E600093E00E94D90A892B81F08FEF80936C0345
:102E700081E090E090932D0280932C0261E070E05D
:102E80008CE693E0E3DBD7DB02C1D80117964C91C7
:102E9000179750E0542F442718968C91482BA12C5B
:102EA000B12C0F2EF6E4CF2EF02D0F2EFCE6EF2ED8
:102EB000F3E0FF2EF02D00E020E030E060E087E15D
:102EC0000E94FF09882379F08EEF80936C0381E0E4
:102ED00090E090932D0280932C0261E070E0C70196
:102EE000B5DBA9DBD4C010926C0381E090E0909335
:102EF0002D0280932C0261E070E08CE693E0A6DB6B
:102F00009ADBC5C0FE0131965F010F2EF6E4CF2E8D
:102F1000F02D0F2EFCE6EF2EF3E0FF2EF02D00E05B
:102F200020E030E04FE050E064E080E40E94FF09E0
:102F300081110DC06981613450F470E070932D02ED
:102F400060932C028A819B8181DB75DBA0C010928B
:102F50002D0210922C026FDB9AC09E012F5F3F4F13
:102F600059010F2EF6E4CF2EF02D0F2EFCE6EF2E9A
:102F7000F3E0FF2EF02D00E020E030E040E050E0F4
:102F800060E08BE10E94FF0981110DC0698161340D
:102F900050F470E070932D0260932C028A819B8123
:102FA00055DB49DB74C010922D0210922C0243DBDA
:102FB0006EC09801295F3F4FAE014F5F5F4F5A01CE
:102FC0000F2EF6E4CF2EF02D0F2EFCE6EF2EF3E0C1
:102FD000FF2EF02D04E140E050E060E086E10E9429
:102FE000FF0980936C0381E090E090932D02809321
:102FF0002C0261E070E0C70129DB1DDB48C072D8FC
:1030000080936D0381E090E090932D0280932C02D9
:1030100061E070E08CE693E019DB0DDB38C0CE0197
:1030200001965C010F2EF6E4CF2EF02D0F2EFCE65C
:10303000EF2EF3E0FF2EF02D00E020E030E040E046
:1030400050E061E084E20E94FF0981110BC06981B8
:1030500070E070932D0260932C028A819B81F6DAD6
:10306000EADA15C010922D0210922C02E4DA0FC099
:103070000E94560B0CC088E16AD160911D027091CC
:103080001E0280911F029091200241E075DA0F909C
:103090000F900F90DF91CF911F910F91FF90EF90C4
:1030A000DF90CF90BF90AF909F908F907F906F9068
:1030B0005F904F90089581E084B908957FB7F894A8
:1030C000FC01AC01460F511D68E030E020C02191A9
:1030D000862F932F289A22235CF400000000000022
:1030E000000000000000000000000000289809C057
:1030F0000000289800000000000000000000000010
:103100000000220F019731F702C07FBF0895E41736
:10311000F507E9F6FACF0C949A0C089560913803FC
:103120007091390380913A0390913B03089589EFA0
:1031300087BDEEE6F0E080818260808385B58360A4
:1031400085BD84B5826084BD08951F920F920FB62D
:103150000F9211242F933F934F935F936F937F931D
:103160008F939F93AF93BF93EF93FF9380913D0312
:1031700090913E03019690933E0380933D032091EE
:103180001201309113018217930738F010923E0319
:1031900010923D0381E080933C038091380390912D
:1031A0003903A0913A03B0913B030196A11DB11DD3
:1031B0008093380390933903A0933A03B0933B0371
:1031C0000E947B09FF91EF91BF91AF919F918F91E9
:1031D0007F916F915F914F913F912F910F900FBE13
:1031E0000F901F90189584B7877F84BF0FB6F8940F
:1031F000A8958091600088618093600010926000C3
:103200000FBE90E080E80FB6F89480936100909331
:1032100061000FBE8FEF85B988B98BB94CDF87DFAE
:1032200006D60E946F0C0E94BF0C0C94B70908953B
:1032300088E190E00197F1F7D6DF0E949009789439
:103240000E94BB0FC0E001E311E0D1E082E091E019
:1032500009D20E9434210E949A0CC1110BC0F801BE
:10326000808980FF07C080913F038D2780933F03B3
:103270000E941809F801C089C1708895E7CFBFC9BD
:1032800008950C94B709089582E091E0D7D1E2EE59
:10329000F0E0808184608083089582E091E085C0C1
:1032A00008958091100190911101009729F00197E4
:1032B000909311018093100108950F931F93CF9362
:1032C000DF93C901E8014091F70250E068EF72E036
:1032D0000E94AC218091F70290E09983888310923C
:1032E000F70281E028813981232B09F480E0DF9106
:1032F000CF911F910F910895C9013FCA08950F936F
:103300001F93CF93DF938C01C62FD72F8091F702A5
:10331000882359F082E091E0A5D1A6D70E949A0CAB
:1033200088959091F7029111F5CF4C2F5D2FB80140
:1033300088EF92E00E94AC21C093F702DF91CF9119
:103340001F910F910895809141018170089580939C
:10335000F60208958091F602089540913803509145
:10336000390360913A0370913B03480F591F611D67
:10337000711D8091380390913903A0913A03B09167
:103380003B0384179507A607B70770F488958091CB
:10339000380390913903A0913A03B0913B0384170D
:1033A0009507A607B70790F308953F924F925F9253
:1033B0006F927F928F929F92AF92BF92CF92DF9245
:1033C000EF92FF920F931F93CF93DF9300D01F9242
:1033D000CDB7DEB76C01EDB6FEB68091E80083FF95
:1033E00013C1F601808190E02091BB033091BC03B2
:1033F0002817390709F008C18091B803833009F410
:10340000A0C030F4813071F0823009F4E2C0FCC019
:103410008A3009F4C2C08B3009F4ABC0893009F09E
:10342000F3C051C08091B703813A09F0EDC0ADB649
:10343000BEB61A821982E7EBF3E0828113818B8397
:10344000F6018085482F50E08DB79EB7841B950B01
:103450000FB6F8949EBF0FBE8DBFEDB7FEB7319685
:103460004F0160E070E0CF0191D74FEF410F8E0127
:103470000F5F1F4F9401BE016D5F7F4FC6011DDFBF
:10348000F60186819781009721F0408550E0B401D4
:1034900063D71092E900E8EEF0E08081877F8083B7
:1034A0008B8181118093F10069817A81C401F4D10B
:1034B000E8EEF0E080818B7780830FB6F894BEBE93
:1034C0000FBEADBEA1C08091B703813209F09CC090
:1034D0006DB67EB6E7EBF3E006811781528043803C
:1034E0008DB79EB7801B910B0FB6F8949EBF0FBE91
:1034F0008DBFEDB7FEB731964F010F2EF8EEAF2E10
:10350000B12CF02DF5018081877F8083B801C40143
:103510003CD2F50180818E77808321E0511001C07B
:1035200020E030E0021B130B280D391D4FEF440D36
:10353000652DC601E1DE0FB6F8947EBE0FBE6DBEEE
:1035400063C08091B703813A09F05EC0E8EEF0E015
:103550008081877F8083808180FFFDCFF601818518
:103560008093F100E8EEF0E080818E778083C7D30E
:103570004BC08091B703813209F046C0E8EEF0E01D
:103580008081877F8083BBD39091B90381E09111C3
:1035900001C080E0F601818737C08091B703813296
:1035A00099F5E8EEF0E08081877F8083A8D3809151
:1035B000B9039091BA0388270024880F991F001C33
:1035C000880F991F001C892F902DF60195878487FD
:1035D0001BC08091B703813AB9F4E8EEF0E0808136
:1035E000877F8083808180FFFDCFF601848595856C
:1035F00096958795969587958093F100E8EEF0E093
:1036000080818E7780837BD30FB6F894FEBE0FBE89
:10361000EDBE0F900F900F90DF91CF911F910F9102
:10362000FF90EF90DF90CF90BF90AF909F908F90E2
:103630007F906F905F904F903F900895FC01399676
:1036400027E0DF011D922A95E9F721E0FC0121879F
:1036500024EF31E03587248723E0248361E001965D
:10366000D9C208955F926F927F928F929F92AF928C
:10367000BF92CF92DF92EF92FF920F931F93CF935F
:10368000DF9300D01F92CDB7DEB77C01ADB6BEB6DA
:103690008091B603843009F08AC08091E400909153
:1036A000E500F701228533852817390709F47FC023
:1036B00081818F708093E9008091E80085FF77C059
:1036C0008DB69EB6408550E08DB79EB7841B950B96
:1036D0000FB6F8949EBF0FBE8DBFEDB7FEB7319603
:1036E0006F011B821A82198260E070E0CF014ED612
:1036F0008E010F5F1F4F960140E0BE016D5F7F4F4F
:10370000C701DBDD582EF70184859585892B41F0B3
:1037100081E026853785232B09F080E0782E01C0D3
:10372000712CF701068117810115110589F0498176
:103730005A81B801C60103D666246394892B09F423
:10374000612CF701408550E0B601C80105D601C0E3
:10375000612C89819A81892BF1F0511004C061108C
:1037600002C070FE18C0F70184859585978786870B
:1037700081818F708093E9008B8181118093F100AA
:1037800069817A8140E050E0C60129D0E8EEF0E09E
:1037900080818E7780838091E4009091E500F7012D
:1037A000938782870FB6F8949EBE0FBE8DBE0FB66C
:1037B000F894BEBE0FBEADBE0F900F900F90DF917C
:1037C000CF911F910F91FF90EF90DF90CF90BF901E
:1037D000AF909F908F907F906F905F9008958F92A1
:1037E0009F92AF92BF92CF92DF92EF92FF920F9390
:1037F0001F93CF93DF938C01EB015A01A4D2811167
:103800003EC0A114B10439F0F50180819181C81B3B
:10381000D90B080F191F209789F1E12CF12C0F2EDD
:10382000F8EE8F2E912CF02D0F2EF1EFCF2ED12C04
:10383000F02DF401808185FD14C080818E77808316
:1038400013D5A114B10449F0F50180819181E80EEE
:10385000F91EF182E08285E012C075D2882351F012
:103860000EC0F80181918F01F60180832197FFEF4F
:10387000EF1AFF0A2097E9F680E001C080E0DF91AF
:10388000CF911F910F91FF90EF90DF90CF90BF905D
:10389000AF909F908F900895EF92FF921F93CF93D8
:1038A000DF932091BD033091BE032617370758F0F0
:1038B0006115710539F4E8EEF0E020812E77208360
:1038C0009B0101C09B01A82FB92F40E0E8EEF0E07A
:1038D00062EF70E00F2EF1EFEF2EF12CF02D51E0A2
:1038E00010E02BC08091B6038823F1F18530F1F10F
:1038F000808183FD3DC0808182FD2FC0808180FF5B
:103900001CC0EB01888190E02115310579F08830E9
:10391000910560F44D91E7014883215031090196EA
:103920002115310519F088309105A1F7452F089729
:1039300009F0412F80818E7780832115310591F622
:103940004111D0CF0AC08091B603882399F0853009
:1039500099F0808183FF03C011C0E8EEF0E0808120
:1039600082FFF1CF80E00BC082E009C083E007C096
:1039700081E005C082E003C083E001C081E0DF9107
:10398000CF911F91FF90EF900895CF93DF93611532
:10399000710529F4E8EEF0E020812B772083A82F31
:1039A000B92FE8EEF0E042EF50E021EF30E01AC02E
:1039B0008091B6038823A1F18530A1F1808183FD38
:1039C00033C0808182FFF4CF3BC0E90188818D93B1
:1039D0006150710921F0EA0188818111F6CF80815F
:1039E0008B77808361157105A1F08091B6038823E0
:1039F000E9F08530E9F0808183FD1CC0808182FD83
:103A00001FC0D6CF8091B6038823B1F0853019F45A
:103A100015C0E8EEF0E0808180FFF4CF80E015C0B3
:103A200082E013C083E011C081E00FC082E00DC0CE
:103A300083E00BC081E009C082E007C083E005C0DD
:103A4000EA0188818111C1CFCACFDF91CF9108955A
:103A5000EF92FF921F93CF93DF932091BD0330919C
:103A6000BE032617370758F06115710539F4E8EEE3
:103A7000F0E020812E7720839B0101C09B01E82F7D
:103A8000F92F60E0A8EEB0E042EF50E00F2EF1EF2A
:103A9000EF2EF12CF02D71E010E02EC08091B603D6
:103AA000882309F440C0853009F43FC08C9183FD20
:103AB0003EC08C9182FD30C08C9180FF1DC0EA0118
:103AC000888190E02115310581F08830910568F4F6
:103AD0006491E701688331962150310901962115DF
:103AE000310519F08830910599F7672F089709F08B
:103AF000612F8C918E778C932115310579F66111A8
:103B0000CDCF0AC08091B603882399F0853099F013
:103B1000808183FF03C011C0E8EEF0E0808182FF66
:103B2000F1CF80E00BC082E009C083E007C081E0F4
:103B300005C082E003C083E001C081E0DF91CF9146
:103B40001F91FF90EF9008958F929F92BF92CF9216
:103B5000DF92EF92FF920F931F93CF93DF93853005
:103B600070F126C0292F2F70E7012883891731F0C3
:103B7000E80178812081E401588103C0242F762F49
:103B80005B2D21FF12C03C913E7F3C9330813D7FF5
:103B900030833C9131603C93E80178832083E401D9
:103BA0005883E6012881222344F49F5F9530D1F6A3
:103BB0008F708093E90081E021C080E01FC0982FC2
:103BC0009F709093E900982F242F762F50E0ABEE52
:103BD000B0E0EDEEF0E00CEE10E00F2EF0EF8F2EE7
:103BE000912CF02D0F2EFEEECF2ED12CF02D0F2E7E
:103BF000F9EEEF2EF12CF02DB12CC3CFDF91CF9148
:103C00001F910F91FF90EF90DF90CF90BF909F900A
:103C10008F9008959F92AF92BF92CF92DF92EF92D2
:103C2000FF920F931F93CF93DF93662309F458C03D
:103C3000EC017C0124E0E20EF11C6150262F30E003
:103C40002F5F3F4F8901000F111F000F111F200F21
:103C5000311F8C01020F131FD12C6894BB24B3F8C1
:103C6000C12C0F2EF6E0AF2EF02D6894992491F818
:103C70005881552361F1F7019081E981FA81D701DB
:103C800011976C91852F8F70853060F5923010F40C
:103C9000492D01C04A2DE930F10550F02B2D3C2D66
:103CA0009D2D9F5F220F331F2E173F07D0F301C0BA
:103CB0009D2D9295907F492B6295660F660F607CD3
:103CC000551F5527551F652B3FDF882361F025962B
:103CD000F5E0EF0EF11CC017D10751F681E003C0EB
:103CE00081E001C080E0DF91CF911F910F91FF90A3
:103CF000EF90DF90CF90BF90AF909F90089580910C
:103D0000B703882344F0E8EEF0E014C08091B603D6
:103D1000811103C00895E8EEF0E0808182FFF6CFC4
:103D2000E8EEF0E080818B77808308958091B60380
:103D3000882341F0808180FFF9CFE8EEF0E08081B8
:103D40008E77808308950F931F93CF93DF932091F5
:103D5000E4003091E50065E6ACEEB0E0E8EEF0E0BE
:103D60000BEE10E044EE50E001C09C019C91892FC5
:103D7000817090FD1DC020C08091B603882381F022
:103D8000853081F0E801888185FD0EC0EA018881D7
:103D900099812817390751F3615039F784E00FC032
:103DA00082E00DC083E00BC081E009C080E007C065
:103DB000808180FFE1CFFACF908192FFDDCFDF914C
:103DC000CF911F910F9108953CD03ED0E8EDF0E0E7
:103DD00080818F77808380818068808380818F7DE0
:103DE000808384E089BD86E089BD09B400FEFDCFF3
:103DF0001092B6031092B2031092B4031092B30360
:103E000042E060E080E0A0DEE1EEF0E080818E7FC5
:103E10008083E2EEF0E08081816080838081886031
:103E20008083E0EEF0E080818E7F80830895E3E67A
:103E3000F0E080818E7F808381E08093B503C4CFE2
:103E400008951092E20008951092E10008951F92E3
:103E50000F920FB60F9211242F933F934F935F93BE
:103E60006F937F938F939F93AF93BF93EF93FF9342
:103E70008091E10082FF0AC08091E20082FF06C0CB
:103E8000E1EEF0E080818B7F80830BDA8091E100AE
:103E900080FF15C08091E20080FF11C0E2EEF0E0EB
:103EA00080818E7F8083808180618083E8EDF0E077
:103EB00080818062808319BC1092B603E2D9809120
:103EC000E10084FF2FC08091E20084FF2BC084E0DA
:103ED00089BD86E089BD09B400FEFDCFE8EDF0E0C4
:103EE00080818F7D8083E1EEF0E080818F7E808312
:103EF000E2EEF0E080818F7E80838081816080832C
:103F00008091B203882321F084E08093B60309C036
:103F10008091E300882314F081E001C083E0809366
:103F2000B603ADD98091E10083FF1EC08091E2000D
:103F300083FF1AC0E1EEF0E08081877F808382E01A
:103F40008093B6031092B20380818E7F8083E2EE6D
:103F5000F0E080818E7F808380818061808342E079
:103F600060E080E0F1DD7FD1FF91EF91BF91AF91F3
:103F70009F918F917F916F915F914F913F912F9181
:103F80000F900FBE0F901F9018950F931F93CF9314
:103F9000DF93CDB7DEB7AA970FB6F894DEBF0FBE9A
:103FA000CDBFE7EBF3E02FEB33E0A1EFB0E08C9176
:103FB0008193E217F307D9F770D98091E80083FF66
:103FC0002DC1E7EBF3E090818181853009F479C060
:103FD00030F48130B1F168F0833099F11FC188303D
:103FE00009F4EAC0893009F4F7C0863009F016C137
:103FF0008BC0903821F0923809F010C108C0809130
:10400000B3039091B403992371F082600CC0809146
:10401000BB038F70E9EEF0E080838091EB0085FBBD
:10402000882780F91082E8EEF0E09081977F9083F6
:10403000A1EFB0E08C931C9280818E7780835FDE4D
:10404000EDC0992309F4F9C0923009F0E7C0FAC035
:1040500091E0833009F090E09093B40329C08091FF
:10406000BB038F7009F4DAC08093E9009091EB00F4
:1040700090FF1EC09091B803933031F4EBEEF0E066
:1040800080818062808314C0EBEEF0E090819061CB
:10409000908321E030E0A90102C0440F551F8A95AA
:1040A000E2F7AAEEB0E04C931C9280818860808396
:1040B0001092E900E8EEF0E08081877F80831FDEC8
:1040C000ADC09111ABC01091B9031F77E3EEF0E0E2
:1040D00080818078812B8083E8EEF0E08081877F8B
:1040E00080830DDEE8EEF0E0808180FFFDCFE3EE1F
:1040F000F0E0808180688083111102C082E001C0FD
:1041000083E08093B6038AC09058923008F086C04E
:104110008091B9039091BA038C3D53E0950799F5CE
:1041200083E08A838AE289835FB7F894DE0113967D
:1041300020E03EE041E2E32FF0E04093570084911D
:1041400020FF03C082958F703F5F8F708A3018F018
:1041500090E0C79602C090E0C0968D939D932F5F2C
:10416000243149F75FBF08EE10E0F8018081877FB6
:1041700080836AE270E0CE0101968EDBF8018081D7
:104180008B7780834BC0AE014F5F5F4F6091BB0365
:104190000E94030CBC01892B09F440C008EE10E01A
:1041A000F8019081977F908389819A8151DCF80191
:1041B00080818B77808332C0903881F5E8EEF0E023
:1041C0008081877F80838091B2038093F10080811A
:1041D0008E77808394DD22C0911120C08091B90335
:1041E0008230E0F4E8EEF0E08081877F8083809188
:1041F000B9038093B20383DD8091B203882321F059
:1042000084E08093B60309C08091E300882314F012
:1042100081E001C084E08093B60336D88091E80045
:1042200083FF16C0E8EEF0E08081877F8083EBEEAD
:10423000F0E08081806280830BC09091B90391305F
:1042400069F706CF8091B903882309F408CF30CFEE
:10425000AA960FB6F894DEBF0FBECDBFDF91CF9107
:104260001F910F9108950895CF938091B6038823ED
:1042700099F0C091E900CF708091EC00982F917077
:1042800080FD90E8C92B1092E9008091E80083FD41
:104290007CDECF70C093E900CF91089500245527AC
:1042A00004C0080E591F880F991F009729F07695B2
:1042B0006795B8F37105B9F7802D952F08952F9262
:1042C0003F924F925F926F927F928F929F92AF92A6
:1042D000BF92CF92DF92EF92FF920F931F93CF93F3
:1042E000DF93CDB7DEB7CA1BDB0B0FB6F894DEBF8A
:1042F0000FBECDBF09942A88398848885F846E84B0
:104300007D848C849B84AA84B984C884DF80EE80F9
:10431000FD800C811B81AA81B981CE0FD11D0FB602
:10432000F894DEBF0FBECDBFED010895FB01DC01A7
:1043300002C005900D9241505040D8F70895FB01FE
:10434000DC0104C08D910190801921F4415050404E
:10435000C8F7881B990B0895FB01DC0102C001908E
:104360000D9241505040D8F708956817790768F4C6
:10437000FB01DC01E40FF51FA40FB51F02C0029082
:104380000E9241505040D8F70895E6CFDC0101C0AD
:104390006D9341505040E0F70895DC01CB01FC01E2
:1043A000F999FECF06C0F2BDE1BDF89A319600B48E
:1043B0000D9241505040B8F70895262FF999FECF3D
:1043C00092BD81BDF89A019700B4021639F01FBA68
:1043D00020BD0FB6F894FA9AF99A0FBE0895DC0141
:1043E000CB0102C02D9105D041505040D8F708951F
:1043F000262FF999FECF1FBA92BD81BD20BD0FB601
:10440000F894FA9AF99A0FBE01960895F894FFCF9E
:1044100001FF00814000000100004000000000009A
:104420000000320000000000000000000200010057
:084430005532465F56320000D0
:00000001FF
